:020000040000FA
:10000000831603130F1083160317880189018316C3
:100010000313860183160313FF3085008312031335
:100020008601051C1128851C1A28051D1D28851D03
:1000300020282328113086002620333086002920EE
:10004000773086002C20FF3086002F20051C3228B8
:100050002628851C35282928051D38282C28851D8B
:100060003B282F28003086001128113086002628D2
:0C007000333086002928773086002C28C9
:043000000034003464
:02400E00FF2889
:02401000E43E8C
:00000001FF
